{
  "contractName": "Template",
  "abi": [
    {
      "constant": true,
      "inputs": [
        {
          "name": "",
          "type": "uint256"
        }
      ],
      "name": "templateList",
      "outputs": [
        {
          "name": "templateKey",
          "type": "uint8"
        },
        {
          "name": "templateName_kr",
          "type": "bytes32"
        },
        {
          "name": "templateName_en",
          "type": "bytes32"
        },
        {
          "name": "x",
          "type": "uint256"
        },
        {
          "name": "y",
          "type": "uint256"
        },
        {
          "name": "tasteKey",
          "type": "uint8"
        }
      ],
      "payable": false,
      "stateMutability": "view",
      "type": "function"
    },
    {
      "inputs": [],
      "payable": false,
      "stateMutability": "nonpayable",
      "type": "constructor"
    },
    {
      "constant": false,
      "inputs": [
        {
          "name": "_templateName_kr",
          "type": "bytes32"
        },
        {
          "name": "_templateName_en",
          "type": "bytes32"
        },
        {
          "name": "_x",
          "type": "uint256"
        },
        {
          "name": "_y",
          "type": "uint256"
        }
      ],
      "name": "addTemplate",
      "outputs": [],
      "payable": false,
      "stateMutability": "nonpayable",
      "type": "function"
    },
    {
      "constant": true,
      "inputs": [
        {
          "name": "temlateKey",
          "type": "uint8"
        }
      ],
      "name": "getTemplate",
      "outputs": [
        {
          "name": "templateName_kr",
          "type": "bytes32"
        },
        {
          "name": "templateName_en",
          "type": "bytes32"
        },
        {
          "name": "x",
          "type": "uint256"
        },
        {
          "name": "y",
          "type": "uint256"
        }
      ],
      "payable": false,
      "stateMutability": "view",
      "type": "function"
    },
    {
      "constant": false,
      "inputs": [
        {
          "name": "tid",
          "type": "uint256"
        },
        {
          "name": "_name_kr",
          "type": "bytes32"
        },
        {
          "name": "_name_en",
          "type": "bytes32"
        },
        {
          "name": "_image_name",
          "type": "bytes32"
        },
        {
          "name": "_image_ipfs",
          "type": "bytes32"
        }
      ],
      "name": "addTaste",
      "outputs": [],
      "payable": false,
      "stateMutability": "nonpayable",
      "type": "function"
    },
    {
      "constant": true,
      "inputs": [
        {
          "name": "templateKey",
          "type": "uint8"
        }
      ],
      "name": "getTemplateTasteA",
      "outputs": [
        {
          "name": "name_kr",
          "type": "bytes32[]"
        }
      ],
      "payable": false,
      "stateMutability": "view",
      "type": "function"
    },
    {
      "constant": true,
      "inputs": [
        {
          "name": "templateKey",
          "type": "uint8"
        }
      ],
      "name": "getTemplateTasteB",
      "outputs": [
        {
          "name": "name_en",
          "type": "bytes32[]"
        }
      ],
      "payable": false,
      "stateMutability": "view",
      "type": "function"
    },
    {
      "constant": true,
      "inputs": [
        {
          "name": "templateKey",
          "type": "uint8"
        }
      ],
      "name": "getTemplateTasteC",
      "outputs": [
        {
          "name": "name_kr",
          "type": "bytes32[]"
        }
      ],
      "payable": false,
      "stateMutability": "view",
      "type": "function"
    },
    {
      "constant": true,
      "inputs": [
        {
          "name": "templateKey",
          "type": "uint8"
        }
      ],
      "name": "getTemplateTasteD",
      "outputs": [
        {
          "name": "name_kr",
          "type": "bytes32[]"
        }
      ],
      "payable": false,
      "stateMutability": "view",
      "type": "function"
    }
  ],
  "bytecode": "0x60806040523480156200001157600080fd5b50620000707fec97aced968900000000000000000000000000000000000000000000000000007f54726176656c000000000000000000000000000000000000000000000000000060038062000132640100000000026401000000009004565b620000ce7fec9d8cec8b9d00000000000000000000000000000000000000000000000000007f466f6f640000000000000000000000000000000000000000000000000000000060038062000132640100000000026401000000009004565b6200012c7feb8db0ec9db4ed8ab800000000000000000000000000000000000000000000007f446174696e67000000000000000000000000000000000000000000000000000060038062000132640100000000026401000000009004565b62000384565b6200013c620002a4565b8481602001906000191690816000191681525050838160400190600019169081600019168152505082816060018181525050818160800181815250506000819080600181540180825580915050906001820390600052602060002090600a02016000909192909190915060008201518160000160006101000a81548160ff021916908360ff1602179055506020820151816001019060001916905560408201518160020190600019169055606082015181600301556080820151816004015560a08201518160050160006101000a81548160ff021916908360ff16021790555060c08201518160060190805190602001906200023a92919062000304565b5060e08201518160070190805190602001906200025992919062000304565b506101008201518160080190805190602001906200027992919062000304565b506101208201518160090190805190602001906200029992919062000304565b505050505050505050565b61014060405190810160405280600060ff16815260200160008019168152602001600080191681526020016000815260200160008152602001600060ff168152602001606081526020016060815260200160608152602001606081525090565b82805482825590600052602060002090810192821562000349579160200282015b828111156200034857825182906000191690559160200191906001019062000325565b5b5090506200035891906200035c565b5090565b6200038191905b808211156200037d57600081600090555060010162000363565b5090565b90565b610b3d80620003946000396000f30060806040526004361061008e576000357c0100000000000000000000000000000000000000000000000000000000900463ffffffff1680630510b8a71461009357806318711f7d1461011857806365cc09701461017d5780636a6d0562146101d057806381a8f0c3146102555780638e6ff9b2146102be5780639405169914610343578063d0ce87e0146103c3575b600080fd5b34801561009f57600080fd5b506100c1600480360381019080803560ff169060200190929190505050610448565b6040518080602001828103825283818151815260200191508051906020019060200280838360005b838110156101045780820151818401526020810190506100e9565b505050509050019250505060405180910390f35b34801561012457600080fd5b5061017b6004803603810190808035906020019092919080356000191690602001909291908035600019169060200190929190803560001916906020019092919080356000191690602001909291905050506104c7565b005b34801561018957600080fd5b506101ce60048036038101908080356000191690602001909291908035600019169060200190929190803590602001909291908035906020019092919050505061060e565b005b3480156101dc57600080fd5b506101fe600480360381019080803560ff169060200190929190505050610776565b6040518080602001828103825283818151815260200191508051906020019060200280838360005b83811015610241578082015181840152602081019050610226565b505050509050019250505060405180910390f35b34801561026157600080fd5b50610283600480360381019080803560ff1690602001909291905050506107f5565b604051808560001916600019168152602001846000191660001916815260200183815260200182815260200194505050505060405180910390f35b3480156102ca57600080fd5b506102ec600480360381019080803560ff1690602001909291905050506108d6565b6040518080602001828103825283818151815260200191508051906020019060200280838360005b8381101561032f578082015181840152602081019050610314565b505050509050019250505060405180910390f35b34801561034f57600080fd5b5061036e60048036038101908080359060200190929190505050610955565b604051808760ff1660ff168152602001866000191660001916815260200185600019166000191681526020018481526020018381526020018260ff1660ff168152602001965050505050505060405180910390f35b3480156103cf57600080fd5b506103f1600480360381019080803560ff1690602001909291905050506109ba565b6040518080602001828103825283818151815260200191508051906020019060200280838360005b83811015610434578082015181840152602081019050610419565b505050509050019250505060405180910390f35b606060008260ff1681548110151561045c57fe5b90600052602060002090600a02016006018054806020026020016040519081016040528092919081815260200182805480156104bb57602002820191906000526020600020905b815460001916815260200190600101908083116104a3575b50505050509050919050565b6000858154811015156104d657fe5b90600052602060002090600a020160060184908060018154018082558091505090600182039060005260206000200160009091929091909150906000191690555060008581548110151561052657fe5b90600052602060002090600a020160070183908060018154018082558091505090600182039060005260206000200160009091929091909150906000191690555060008581548110151561057657fe5b90600052602060002090600a02016008018290806001815401808255809150509060018203906000526020600020016000909192909190915090600019169055506000858154811015156105c657fe5b90600052602060002090600a02016009018190806001815401808255809150509060018203906000526020600020016000909192909190915090600019169055505050505050565b610616610a39565b8481602001906000191690816000191681525050838160400190600019169081600019168152505082816060018181525050818160800181815250506000819080600181540180825580915050906001820390600052602060002090600a02016000909192909190915060008201518160000160006101000a81548160ff021916908360ff1602179055506020820151816001019060001916905560408201518160020190600019169055606082015181600301556080820151816004015560a08201518160050160006101000a81548160ff021916908360ff16021790555060c0820151816006019080519060200190610712929190610a99565b5060e082015181600701908051906020019061072f929190610a99565b5061010082015181600801908051906020019061074d929190610a99565b5061012082015181600901908051906020019061076b929190610a99565b505050505050505050565b606060008260ff1681548110151561078a57fe5b90600052602060002090600a02016006018054806020026020016040519081016040528092919081815260200182805480156107e957602002820191906000526020600020905b815460001916815260200190600101908083116107d1575b50505050509050919050565b6000806000806000600160009054906101000a900460ff1660ff1681548110151561081c57fe5b90600052602060002090600a0201600101546000600160009054906101000a900460ff1660ff1681548110151561084f57fe5b90600052602060002090600a0201600201546000600160009054906101000a900460ff1660ff1681548110151561088257fe5b90600052602060002090600a0201600301546000600160009054906101000a900460ff1660ff168154811015156108b557fe5b90600052602060002090600a02016004015493509350935093509193509193565b606060008260ff168154811015156108ea57fe5b90600052602060002090600a020160070180548060200260200160405190810160405280929190818152602001828054801561094957602002820191906000526020600020905b81546000191681526020019060010190808311610931575b50505050509050919050565b60008181548110151561096457fe5b90600052602060002090600a02016000915090508060000160009054906101000a900460ff16908060010154908060020154908060030154908060040154908060050160009054906101000a900460ff16905086565b606060008260ff168154811015156109ce57fe5b90600052602060002090600a0201600601805480602002602001604051908101604052809291908181526020018280548015610a2d57602002820191906000526020600020905b81546000191681526020019060010190808311610a15575b50505050509050919050565b61014060405190810160405280600060ff16815260200160008019168152602001600080191681526020016000815260200160008152602001600060ff168152602001606081526020016060815260200160608152602001606081525090565b828054828255906000526020600020908101928215610adb579160200282015b82811115610ada578251829060001916905591602001919060010190610ab9565b5b509050610ae89190610aec565b5090565b610b0e91905b80821115610b0a576000816000905550600101610af2565b5090565b905600a165627a7a7230582090802619a8d96cf3321550e189305888e411e0252b204496a84c03c4073579190029",
  "source": "pragma solidity ^0.4.11;\n\ncontract Template{\n\n    struct template{\n\n        uint8 templateKey;\n        bytes32 templateName_kr;\n        bytes32 templateName_en;\n        uint x;\n        uint y;\n\n        uint8 tasteKey;\n        bytes32[] name_kr;\n        bytes32[] name_en;\n        bytes32[] image_name;\n        bytes32[] image_ipfs;\n\n    }\n\n    template[] public templateList;\n    uint8 templateKey;\n\n    constructor(){\n        addTemplate('여행','Travel',3,3);\n        addTemplate('음식','Food',3,3);\n        addTemplate('데이트','Dating',3,3);\n\n        //addTaste(0, '나홀로여행', 'AloneTravel', 'alonetravel.png', 'QmZ8x77VmjBMt5iZcfdsmCJU7WkHTkbeptgt3m9TDXSG4p');\n        //addTaste(0, '디지털디톡스여행', 'DigitalDetoxTravel', 'digitaldetoxtravel.png', 'QmXnLteNK8JEcaZJ4M4XTud5QWqH3EBFjPHK3QBrDoim1Y');\n        //addTaste(0, '트레킹여행', 'TrekkingTravel', 'trekkingtravel.png', 'QmXpc5hcg4cwvkLnEhnD9ymfjNtrVudKj7rd36WLQUcBGt');\n        //addTaste(0, '홈스테이여행', 'HomestayTravel', 'homestaytravel.png', 'QmXEJrk7i4W1h31LzwxQHZepxNamyCq3MCifVm5Jb6QSH7');\n        //addTaste(0, '힐링여행', 'HealingTravel', 'healingtravel.png','Qmb4xzjsgmha6yhV66MVXqGjyTs8mDzzTD3f9JN4QPbZbX');\n        //addTaste(0, '수상스포츠여행', 'WaterSportsTravel', 'watersportstravel.png','QmZVoWR4ymFJzsQu1ij6vgnYJ7PMqoevzh8eCs9odeKCAW');\n        //addTaste(0, '자선여행', 'VolunteerTravel', 'volunteertravel.png', 'QmTvSZMpDeEx2hhUPC2Gqb5HpUqZ1HWPSMb4g3b1dLbb8b');\n        //addTaste(0, '음주여행', 'DrinkTravel', 'drinktravel.png', 'QmY6N55k9Ub34Rgak46iKW12g1C1hzwWZ5YNtcL8x1kKSj');\n        //addTaste(0, '애완동물과여행', 'TravelWithPets', 'travelwithpets.png', 'Qma7Pq6RXacAobjbuFwPrM7vLyXXqxEKizRDd29dxU84go');\n\n        //addTaste(1,'짜장면','Jajangmyeon','jajangmyeon.jpg','QmZuhD32MY1ZYRJzZ5HpUx9MzCkThpGkSspJ3YEEDKiqNa');\n        //addTaste(1,'초밥','Sushi','sushi.jpg','QmRayC1eT8ZdGSpkqjNSAMQC3zed51vfTmGyYk7VKzBJZr');\n        //addTaste(1,'삼겹살','PorkBelly','porkbelly.jpg','QmXowdFxfcGgBpQ38eNXsQtJEqSxLP11dVEvrp1RUj3mUJ');\n        //addTaste(1,'커리','Curry','curry.jpg','QmagYZ9ZJXzgBu8oPX25MvqGNpqDEugfVfJT2aTjeqKxR1');\n        //addTaste(1,'스테이크','Steak','steak.jpg','QmSyvcu1FwNzgvVFRDwQX6cEawJApjNCekkKVSTY1tTEx9');\n        //addTaste(1,'냉면','ColdNoodles','coldnoodles.jpg','QmbDYM8wSr94KBnihwzCZUp2KcHnacDxZy3jVL1w4sMgof');\n        //addTaste(1,'치킨','Chicken','chicken.jpg','QmV42Byrq9px1k8fMj1cMPg87fvYBWS8r8jZR15N6t8ddV');\n        //addTaste(1,'라면','Ramen','ramen.jpg','QmavQJXQijSS25bQbtTsbTQoHSwozRykxPNViTXxvoEHKX');\n        //addTaste(1,'떡볶이','Tteokbokki','tteokbokki.jpg','QmZ5rgyVmGbaDrotUM1yUMvgejUD5TiVzEh1NuGVxwLpvj');\n\n        //addTaste(2,'놀이공원','AmusementPark','amusementpark.jpg','QmXgEDRpD23zbfevHLyxK3bwXcdvwZmYZJUk7yvro2tttT');\n        //addTaste(2,'카페','Cafe','cafe.jpg','Qmd7X5QASJnQSsx8ydKEJZTQ3UXSn8AE8UfGApjoaCdnuh');\n        //addTaste(2,'도시산책','CityWalk','citywalk.jpg','QmPVRDCrHkv3HJojiK7vvZcoQMkZZVce8RUFzFxQLwLyMs');\n        //addTaste(2,'찜질방','KoreanSauna','koreansauna.jpg','Qme8JRgN3dvhAUHeDMkBcmcqY8w4g7uSfriaP21M1zYUQk');\n        //addTaste(2,'극장','Theater','theater.jpg','QmeHTSDWxse3Nzc2F7nGpzfSg5bdkz4JGhqUUEQiRcmikd');\n        //addTaste(2,'바다','Sea','sea.jpg','QmRWTNLXm2AD9FJR8h7fSWVuhXUGqdXCvJxGKDrEh4yRSF');\n        //addTaste(2,'술','Alcohol','alcohol.jpg','QmRZw2psnke7Y7oYBCzHfH4FsDnEEkZSCeNGng5xmo9yG9');\n        //addTaste(2,'노래방','Karaoke','karaoke.jpg','QmWRwbj9CFp4THamVtZQHPwKjQ12PEo6gB8PuTmdY1D1Ht');\n        //addTaste(2,'운동','Exercise','exercise.jpg','QmQGw4XTX33rUSYWFgKtME7XWifQ94o71iBKMRkpGqJAfW');\n    }\n\n    //Template.deployed().then(function(instance){instance.addTemplate(\"음식\",\"Food\",3,3)});\n    function addTemplate(bytes32 _templateName_kr, bytes32 _templateName_en,uint _x, uint _y)\n    {\n        template memory addtemp;\n        addtemp.templateName_kr = _templateName_kr;\n        addtemp.templateName_en = _templateName_en;\n        addtemp.x = _x;\n        addtemp.y = _y;\n\n        templateList.push(addtemp);\n    }\n\n    //Template.deployed().then(function(instance){ return instance.getTemplate.call(0)}).then(function(v){return v[0].toString()}).then(function(value) {return web3.toAscii(value).replace(/\\u0000/g, '')});\n    //Template.deployed().then(function(instance){ return instance.getTemplate.call(0)}).then(function(v){return v[1].toString()}).then(function(value) {return web3.toAscii(value).replace(/\\u0000/g, '')});\n    //Template.deployed().then(function(instance){ return instance.getTemplate.call(0)}).then(function(v){return v[2]}).then(function(value) {return value.toNumber();});\n    //Template.deployed().then(function(instance){ return instance.getTemplate.call(0)}).then(function(v){return v[3]}).then(function(value) {return value.toNumber();});\n    function getTemplate(uint8 temlateKey)\n    public view returns(bytes32 templateName_kr, bytes32 templateName_en, uint x, uint y)\n    {\n        return(templateList[templateKey].templateName_kr, templateList[templateKey].templateName_en, templateList[templateKey].x, templateList[templateKey].y);\n    }\n\n\n    //Template.deployed().then(function(instance){instance.addTaste(0,\"치킨\",\"Chicken\", \"image.jpg\",\"IPFS:Chicken\")});\n    function addTaste(uint tid, bytes32 _name_kr, bytes32 _name_en, bytes32 _image_name, bytes32 _image_ipfs){\n        templateList[tid].name_kr.push(_name_kr);\n        templateList[tid].name_en.push(_name_en);\n        templateList[tid].image_name.push(_image_name);\n        templateList[tid].image_ipfs.push(_image_ipfs);\n    }\n\n    //Template.deployed().then(function(instance){ return instance.getTemplateTasteA.call(0)}).then(function(v){return v[0]});\n    function getTemplateTasteA(uint8 templateKey) public view returns(bytes32[] name_kr){\n        return(templateList[templateKey].name_kr);\n    }\n    //Template.deployed().then(function(instance){ return instance.getTemplateTasteB.call(0)}).then(function(v){return v[0]});\n    function getTemplateTasteB(uint8 templateKey) public view returns(bytes32[] name_en){\n        return(templateList[templateKey].name_en);\n    }\n    //Template.deployed().then(function(instance){ return instance.getTemplateTasteC.call(0)}).then(function(v){return v[0]});\n    function getTemplateTasteC(uint8 templateKey) public view returns(bytes32[] name_kr){\n        return(templateList[templateKey].name_kr);\n    }\n    //Template.deployed().then(function(instance){ return instance.getTemplateTasteD.call(0)}).then(function(v){return v[0]});\n    function getTemplateTasteD(uint8 templateKey) public view returns(bytes32[] name_kr){\n        return(templateList[templateKey].name_kr);\n    }\n\n}",
  "sourcePath": "/Users/hongmartin/Documents/Github/vue-truffle/contracts/Template.sol",
  "compiler": {
    "name": "solc",
    "version": "0.4.24+commit.e67f0147.Emscripten.clang"
  },
  "schemaVersion": "2.0.1",
  "updatedAt": "2018-07-14T23:15:39.537Z"
}