{
  "contractName": "Template",
  "abi": [
    {
      "constant": true,
      "inputs": [
        {
          "name": "",
          "type": "uint256"
        }
      ],
      "name": "templateList",
      "outputs": [
        {
          "name": "templateKey",
          "type": "uint8"
        },
        {
          "name": "templateName_kr",
          "type": "bytes32"
        },
        {
          "name": "templateName_en",
          "type": "bytes32"
        },
        {
          "name": "x",
          "type": "uint256"
        },
        {
          "name": "y",
          "type": "uint256"
        },
        {
          "name": "tasteKey",
          "type": "uint8"
        }
      ],
      "payable": false,
      "stateMutability": "view",
      "type": "function"
    },
    {
      "inputs": [],
      "payable": false,
      "stateMutability": "nonpayable",
      "type": "constructor"
    },
    {
      "constant": false,
      "inputs": [
        {
          "name": "_templateName_kr",
          "type": "bytes32"
        },
        {
          "name": "_templateName_en",
          "type": "bytes32"
        },
        {
          "name": "_x",
          "type": "uint256"
        },
        {
          "name": "_y",
          "type": "uint256"
        }
      ],
      "name": "addTemplate",
      "outputs": [],
      "payable": false,
      "stateMutability": "nonpayable",
      "type": "function"
    },
    {
      "constant": true,
      "inputs": [
        {
          "name": "temlateKey",
          "type": "uint8"
        }
      ],
      "name": "getTemplate",
      "outputs": [
        {
          "name": "templateName_kr",
          "type": "bytes32"
        },
        {
          "name": "templateName_en",
          "type": "bytes32"
        },
        {
          "name": "x",
          "type": "uint256"
        },
        {
          "name": "y",
          "type": "uint256"
        }
      ],
      "payable": false,
      "stateMutability": "view",
      "type": "function"
    },
    {
      "constant": false,
      "inputs": [
        {
          "name": "tid",
          "type": "uint256"
        },
        {
          "name": "_name_kr",
          "type": "bytes32"
        },
        {
          "name": "_name_en",
          "type": "bytes32"
        },
        {
          "name": "_image_name",
          "type": "bytes32"
        },
        {
          "name": "_image_ipfs1",
          "type": "bytes32"
        },
        {
          "name": "_image_ipfs2",
          "type": "bytes32"
        }
      ],
      "name": "addTaste",
      "outputs": [],
      "payable": false,
      "stateMutability": "nonpayable",
      "type": "function"
    },
    {
      "constant": true,
      "inputs": [
        {
          "name": "templateKey",
          "type": "uint8"
        }
      ],
      "name": "getTemplateTasteA",
      "outputs": [
        {
          "name": "name_kr",
          "type": "bytes32[]"
        }
      ],
      "payable": false,
      "stateMutability": "view",
      "type": "function"
    },
    {
      "constant": true,
      "inputs": [
        {
          "name": "templateKey",
          "type": "uint8"
        }
      ],
      "name": "getTemplateTasteB",
      "outputs": [
        {
          "name": "name_en",
          "type": "bytes32[]"
        }
      ],
      "payable": false,
      "stateMutability": "view",
      "type": "function"
    },
    {
      "constant": true,
      "inputs": [
        {
          "name": "templateKey",
          "type": "uint8"
        }
      ],
      "name": "getTemplateTasteC",
      "outputs": [
        {
          "name": "image_name",
          "type": "bytes32[]"
        }
      ],
      "payable": false,
      "stateMutability": "view",
      "type": "function"
    },
    {
      "constant": true,
      "inputs": [
        {
          "name": "templateKey",
          "type": "uint8"
        }
      ],
      "name": "getTemplateTasteD",
      "outputs": [
        {
          "name": "image_ipfs1",
          "type": "bytes32[]"
        }
      ],
      "payable": false,
      "stateMutability": "view",
      "type": "function"
    },
    {
      "constant": true,
      "inputs": [
        {
          "name": "templateKey",
          "type": "uint8"
        }
      ],
      "name": "getTemplateTasteE",
      "outputs": [
        {
          "name": "image_ipfs2",
          "type": "bytes32[]"
        }
      ],
      "payable": false,
      "stateMutability": "view",
      "type": "function"
    }
  ],
  "bytecode": "0x60806040523480156200001157600080fd5b50620000707fec97aced968900000000000000000000000000000000000000000000000000007f54726176656c000000000000000000000000000000000000000000000000000060038062001572640100000000026401000000009004565b620000ce7fec9d8cec8b9d00000000000000000000000000000000000000000000000000007f466f6f640000000000000000000000000000000000000000000000000000000060038062001572640100000000026401000000009004565b6200012c7feb8db0ec9db4ed8ab800000000000000000000000000000000000000000000007f446174696e67000000000000000000000000000000000000000000000000000060038062001572640100000000026401000000009004565b620001ec60007feb8298ed9980eba19cec97aced968900000000000000000000000000000000007f416c6f6e6554726176656c0000000000000000000000000000000000000000007f616c6f6e6574726176656c2e706e6700000000000000000000000000000000007f516d5a38783737566d6a424d7435695a636664736d434a0000000000000000007f5537576b48546b626570746774336d395444585347347000000000000000000062001704640100000000026401000000009004565b620002ac60007feb9494eca780ed84b8eb9494ed86a1ec8aa4ec97aced968900000000000000007f4469676974616c4465746f7854726176656c00000000000000000000000000007f6469676974616c6465746f7874726176656c2e706e67000000000000000000007f516d586e4c74654e4b384a4563615a4a344d34585475640000000000000000007f3551577148334542466a50484b33514272446f696d315900000000000000000062001704640100000000026401000000009004565b6200036c60007fed8ab8eba088ed82b9ec97aced968900000000000000000000000000000000007f5472656b6b696e6754726176656c0000000000000000000000000000000000007f7472656b6b696e6774726176656c2e706e6700000000000000000000000000007f516d58706335686367346377766b4c6e45686e4439796d0000000000000000007f666a4e74725675644b6a3772643336574c51556342477400000000000000000062001704640100000000026401000000009004565b6200042c60007fed9988ec8aa4ed858cec9db4ec97aced968900000000000000000000000000007f486f6d657374617954726176656c0000000000000000000000000000000000007f686f6d657374617974726176656c2e706e6700000000000000000000000000007f516d58454a726b37693457316833314c7a777851485a650000000000000000007f70784e616d794371334d436966566d354a62365153483700000000000000000062001704640100000000026401000000009004565b620004ec60007fed9e90eba781ec97aced968900000000000000000000000000000000000000007f4865616c696e6754726176656c000000000000000000000000000000000000007f6865616c696e6774726176656c2e706e670000000000000000000000000000007f516d6234787a6a73676d68613679685636364d565871470000000000000000007f6a795473386d447a7a54443366394a4e345150625a625800000000000000000062001704640100000000026401000000009004565b620005ac60007fec8898ec8381ec8aa4ed8facecb8a0ec97aced968900000000000000000000007f576174657253706f72747354726176656c0000000000000000000000000000007f776174657273706f72747374726176656c2e706e6700000000000000000000007f516d5a566f575234796d464a7a73517531696a3676676e0000000000000000007f594a37504d716f65767a6838654373396f64654b43415700000000000000000062001704640100000000026401000000009004565b6200066c60007fec9e90ec84a0ec97aced968900000000000000000000000000000000000000007f566f6c756e7465657254726176656c00000000000000000000000000000000007f766f6c756e7465657274726176656c2e706e67000000000000000000000000007f516d5476535a4d704465457832686855504332477162350000000000000000007f487055715a31485750534d623467336231644c6262386200000000000000000062001704640100000000026401000000009004565b6200072c60007fec9d8ceca3bcec97aced968900000000000000000000000000000000000000007f4472696e6b54726176656c0000000000000000000000000000000000000000007f6472696e6b74726176656c2e706e6700000000000000000000000000000000007f516d59364e35356b39556233345267616b3436694b57310000000000000000007f3267314331687a77575a35594e74634c3878316b4b536a00000000000000000062001704640100000000026401000000009004565b620007ec60007fec95a0ec9984eb8f99ebacbceab3bcec97aced968900000000000000000000007f54726176656c57697468506574730000000000000000000000000000000000007f74726176656c77697468706574732e706e6700000000000000000000000000007f516d613750713652586163416f626a6275467750724d370000000000000000007f764c7958587178454b697a52446432396478553834676f00000000000000000062001704640100000000026401000000009004565b620008ac60017feca79cec9ea5eba9b400000000000000000000000000000000000000000000007f4a616a616e676d79656f6e0000000000000000000000000000000000000000007f6a616a616e676d79656f6e2e6a706700000000000000000000000000000000007f516d5a75684433324d59315a59524a7a5a3548705578390000000000000000007f4d7a436b546870476b5373704a33594545444b69714e6100000000000000000062001704640100000000026401000000009004565b6200096c60017fecb488ebb0a500000000000000000000000000000000000000000000000000007f53757368690000000000000000000000000000000000000000000000000000007f73757368692e6a706700000000000000000000000000000000000000000000007f516d52617943316554385a644753706b716a4e53414d510000000000000000007f43337a656435317666546d4779596b37564b7a424a5a7200000000000000000062001704640100000000026401000000009004565b62000a2c60017fec82bceab2b9ec82b400000000000000000000000000000000000000000000007f506f726b42656c6c7900000000000000000000000000000000000000000000007f706f726b62656c6c792e6a7067000000000000000000000000000000000000007f516d586f77644678666347674270513338654e587351740000000000000000007f4a457153784c5031316456457672703152556a336d554a00000000000000000062001704640100000000026401000000009004565b62000aec60017fecbba4eba6ac00000000000000000000000000000000000000000000000000007f43757272790000000000000000000000000000000000000000000000000000007f63757272792e6a706700000000000000000000000000000000000000000000007f516d6167595a395a4a587a674275386f505832354d76710000000000000000007f474e7071444575676656664a543261546a65714b78523100000000000000000062001704640100000000026401000000009004565b62000bac60017fec8aa4ed858cec9db4ed81ac00000000000000000000000000000000000000007f537465616b0000000000000000000000000000000000000000000000000000007f737465616b2e6a706700000000000000000000000000000000000000000000007f516d53797663753146774e7a67765646524477515836630000000000000000007f4561774a41706a4e43656b6b4b5653545931745445783900000000000000000062001704640100000000026401000000009004565b62000c6c60017feb8389eba9b400000000000000000000000000000000000000000000000000007f436f6c644e6f6f646c65730000000000000000000000000000000000000000007f636f6c646e6f6f646c65732e6a706700000000000000000000000000000000007f516d6244594d3877537239344b426e6968777a435a55700000000000000000007f324b63486e616344785a79336a564c317734734d676f6600000000000000000062001704640100000000026401000000009004565b62000d2c60017fecb998ed82a800000000000000000000000000000000000000000000000000007f436869636b656e000000000000000000000000000000000000000000000000007f636869636b656e2e6a70670000000000000000000000000000000000000000007f516d56343242797271397078316b38664d6a31634d50670000000000000000007f38376676594257533872386a5a5231354e36743864645600000000000000000062001704640100000000026401000000009004565b62000dec60017feb9dbceba9b400000000000000000000000000000000000000000000000000007f52616d656e0000000000000000000000000000000000000000000000000000007f72616d656e2e6a706700000000000000000000000000000000000000000000007f516d6176514a5851696a535332356251627454736254510000000000000000007f6f4853776f7a52796b78504e5669545878766f45484b5800000000000000000062001704640100000000026401000000009004565b62000eac60017feb96a1ebb3b6ec9db400000000000000000000000000000000000000000000007f5474656f6b626f6b6b69000000000000000000000000000000000000000000007f7474656f6b626f6b6b692e6a70670000000000000000000000000000000000007f516d5a35726779566d47626144726f74554d3179554d760000000000000000007f67656a5544355469567a4568314e75475678774c70766a00000000000000000062001704640100000000026401000000009004565b62000f6c60027feb8680ec9db4eab3b5ec9b9000000000000000000000000000000000000000007f416d7573656d656e745061726b000000000000000000000000000000000000007f616d7573656d656e747061726b2e6a70670000000000000000000000000000007f516d5867454452704432337a62666576484c79784b33620000000000000000007f7758636476775a6d595a4a556b377976726f327474745400000000000000000062001704640100000000026401000000009004565b6200102c60027fecb9b4ed8e9800000000000000000000000000000000000000000000000000007f43616665000000000000000000000000000000000000000000000000000000007f636166652e6a70670000000000000000000000000000000000000000000000007f516d643758355141534a6e515373783879644b454a5a540000000000000000007f51335558536e3841453855664741706a6f6143646e756800000000000000000062001704640100000000026401000000009004565b620010ec60027feb8f84ec8b9cec82b0ecb18500000000000000000000000000000000000000007f4369747957616c6b0000000000000000000000000000000000000000000000007f6369747977616c6b2e6a706700000000000000000000000000000000000000007f516d505652444372486b7633484a6f6a694b3776765a630000000000000000007f6f514d6b5a5a566365385255467a4678514c774c794d7300000000000000000062001704640100000000026401000000009004565b620011ac60027fecb09ceca788ebb0a900000000000000000000000000000000000000000000007f4b6f7265616e5361756e610000000000000000000000000000000000000000007f6b6f7265616e7361756e612e6a706700000000000000000000000000000000007f516d65384a52674e3364766841554865444d6b42636d630000000000000000007f715938773467377553667269615032314d317a5955516b00000000000000000062001704640100000000026401000000009004565b6200126c60027feab7b9ec9ea500000000000000000000000000000000000000000000000000007f54686561746572000000000000000000000000000000000000000000000000007f746865617465722e6a70670000000000000000000000000000000000000000007f516d654854534457787365334e7a633246376e47707a660000000000000000007f53673562646b7a344a476871555545516952636d696b6400000000000000000062001704640100000000026401000000009004565b6200132c60027febb094eb8ba400000000000000000000000000000000000000000000000000007f53656100000000000000000000000000000000000000000000000000000000007f7365612e6a7067000000000000000000000000000000000000000000000000007f516d5257544e4c586d32414439464a52386837665357560000000000000000007f756858554771645843764a78474b44724568347952534600000000000000000062001704640100000000026401000000009004565b620013ec60027fec88a000000000000000000000000000000000000000000000000000000000007f416c636f686f6c000000000000000000000000000000000000000000000000007f616c636f686f6c2e6a70670000000000000000000000000000000000000000007f516d525a773270736e6b653759376f5942437a486648344600000000000000007f73446e45456b5a5343654e476e6735786d6f397947390000000000000000000062001704640100000000026401000000009004565b620014ac60027feb85b8eb9e98ebb0a900000000000000000000000000000000000000000000007f4b6172616f6b65000000000000000000000000000000000000000000000000007f6b6172616f6b652e6a70670000000000000000000000000000000000000000007f516d575277626a39434670345448616d56745a514850774b00000000000000007f6a51313250456f366742385075546d645931443148740000000000000000000062001704640100000000026401000000009004565b6200156c60027fec9ab4eb8f9900000000000000000000000000000000000000000000000000007f45786572636973650000000000000000000000000000000000000000000000007f65786572636973652e6a706700000000000000000000000000000000000000007f516d514777345854583333725553595746674b744d45370000000000000000007f585769665139346f373169424b4d526b7047714a41665700000000000000000062001704640100000000026401000000009004565b62001988565b6200157c620018a1565b8481602001906000191690816000191681525050838160400190600019169081600019168152505082816060018181525050818160800181815250506000819080600181540180825580915050906001820390600052602060002090600b02016000909192909190915060008201518160000160006101000a81548160ff021916908360ff1602179055506020820151816001019060001916905560408201518160020190600019169055606082015181600301556080820151816004015560a08201518160050160006101000a81548160ff021916908360ff16021790555060c08201518160060190805190602001906200167a92919062001908565b5060e08201518160070190805190602001906200169992919062001908565b50610100820151816008019080519060200190620016b992919062001908565b50610120820151816009019080519060200190620016d992919062001908565b5061014082015181600a019080519060200190620016f992919062001908565b505050505050505050565b6000868154811015156200171457fe5b90600052602060002090600b02016006018590806001815401808255809150509060018203906000526020600020016000909192909190915090600019169055506000868154811015156200176557fe5b90600052602060002090600b0201600701849080600181540180825580915050906001820390600052602060002001600090919290919091509060001916905550600086815481101515620017b657fe5b90600052602060002090600b02016008018390806001815401808255809150509060018203906000526020600020016000909192909190915090600019169055506000868154811015156200180757fe5b90600052602060002090600b02016009018290806001815401808255809150509060018203906000526020600020016000909192909190915090600019169055506000868154811015156200185857fe5b90600052602060002090600b0201600a01819080600181540180825580915050906001820390600052602060002001600090919290919091509060001916905550505050505050565b61016060405190810160405280600060ff16815260200160008019168152602001600080191681526020016000815260200160008152602001600060ff16815260200160608152602001606081526020016060815260200160608152602001606081525090565b8280548282559060005260206000209081019282156200194d579160200282015b828111156200194c57825182906000191690559160200191906001019062001929565b5b5090506200195c919062001960565b5090565b6200198591905b808211156200198157600081600090555060010162001967565b5090565b90565b610cd080620019986000396000f300608060405260043610610099576000357c0100000000000000000000000000000000000000000000000000000000900463ffffffff1680630510b8a71461009e57806365cc0970146101235780636a6d05621461017657806381a8f0c3146101fb5780638e6ff9b21461026457806394051699146102e9578063acbe8f4c14610369578063b4d8d320146103dc578063d0ce87e014610461575b600080fd5b3480156100aa57600080fd5b506100cc600480360381019080803560ff1690602001909291905050506104e6565b6040518080602001828103825283818151815260200191508051906020019060200280838360005b8381101561010f5780820151818401526020810190506100f4565b505050509050019250505060405180910390f35b34801561012f57600080fd5b50610174600480360381019080803560001916906020019092919080356000191690602001909291908035906020019092919080359060200190929190505050610565565b005b34801561018257600080fd5b506101a4600480360381019080803560ff1690602001909291905050506106eb565b6040518080602001828103825283818151815260200191508051906020019060200280838360005b838110156101e75780820151818401526020810190506101cc565b505050509050019250505060405180910390f35b34801561020757600080fd5b50610229600480360381019080803560ff16906020019092919050505061076a565b604051808560001916600019168152602001846000191660001916815260200183815260200182815260200194505050505060405180910390f35b34801561027057600080fd5b50610292600480360381019080803560ff16906020019092919050505061084b565b6040518080602001828103825283818151815260200191508051906020019060200280838360005b838110156102d55780820151818401526020810190506102ba565b505050509050019250505060405180910390f35b3480156102f557600080fd5b50610314600480360381019080803590602001909291905050506108ca565b604051808760ff1660ff168152602001866000191660001916815260200185600019166000191681526020018481526020018381526020018260ff1660ff168152602001965050505050505060405180910390f35b34801561037557600080fd5b506103da600480360381019080803590602001909291908035600019169060200190929190803560001916906020019092919080356000191690602001909291908035600019169060200190929190803560001916906020019092919050505061092f565b005b3480156103e857600080fd5b5061040a600480360381019080803560ff169060200190929190505050610ac7565b6040518080602001828103825283818151815260200191508051906020019060200280838360005b8381101561044d578082015181840152602081019050610432565b505050509050019250505060405180910390f35b34801561046d57600080fd5b5061048f600480360381019080803560ff169060200190929190505050610b46565b6040518080602001828103825283818151815260200191508051906020019060200280838360005b838110156104d25780820151818401526020810190506104b7565b505050509050019250505060405180910390f35b606060008260ff168154811015156104fa57fe5b90600052602060002090600b020160080180548060200260200160405190810160405280929190818152602001828054801561055957602002820191906000526020600020905b81546000191681526020019060010190808311610541575b50505050509050919050565b61056d610bc5565b8481602001906000191690816000191681525050838160400190600019169081600019168152505082816060018181525050818160800181815250506000819080600181540180825580915050906001820390600052602060002090600b02016000909192909190915060008201518160000160006101000a81548160ff021916908360ff1602179055506020820151816001019060001916905560408201518160020190600019169055606082015181600301556080820151816004015560a08201518160050160006101000a81548160ff021916908360ff16021790555060c0820151816006019080519060200190610669929190610c2c565b5060e0820151816007019080519060200190610686929190610c2c565b506101008201518160080190805190602001906106a4929190610c2c565b506101208201518160090190805190602001906106c2929190610c2c565b5061014082015181600a0190805190602001906106e0929190610c2c565b505050505050505050565b606060008260ff168154811015156106ff57fe5b90600052602060002090600b020160090180548060200260200160405190810160405280929190818152602001828054801561075e57602002820191906000526020600020905b81546000191681526020019060010190808311610746575b50505050509050919050565b6000806000806000600160009054906101000a900460ff1660ff1681548110151561079157fe5b90600052602060002090600b0201600101546000600160009054906101000a900460ff1660ff168154811015156107c457fe5b90600052602060002090600b0201600201546000600160009054906101000a900460ff1660ff168154811015156107f757fe5b90600052602060002090600b0201600301546000600160009054906101000a900460ff1660ff1681548110151561082a57fe5b90600052602060002090600b02016004015493509350935093509193509193565b606060008260ff1681548110151561085f57fe5b90600052602060002090600b02016007018054806020026020016040519081016040528092919081815260200182805480156108be57602002820191906000526020600020905b815460001916815260200190600101908083116108a6575b50505050509050919050565b6000818154811015156108d957fe5b90600052602060002090600b02016000915090508060000160009054906101000a900460ff16908060010154908060020154908060030154908060040154908060050160009054906101000a900460ff16905086565b60008681548110151561093e57fe5b90600052602060002090600b020160060185908060018154018082558091505090600182039060005260206000200160009091929091909150906000191690555060008681548110151561098e57fe5b90600052602060002090600b02016007018490806001815401808255809150509060018203906000526020600020016000909192909190915090600019169055506000868154811015156109de57fe5b90600052602060002090600b0201600801839080600181540180825580915050906001820390600052602060002001600090919290919091509060001916905550600086815481101515610a2e57fe5b90600052602060002090600b0201600901829080600181540180825580915050906001820390600052602060002001600090919290919091509060001916905550600086815481101515610a7e57fe5b90600052602060002090600b0201600a01819080600181540180825580915050906001820390600052602060002001600090919290919091509060001916905550505050505050565b606060008260ff16815481101515610adb57fe5b90600052602060002090600b0201600a01805480602002602001604051908101604052809291908181526020018280548015610b3a57602002820191906000526020600020905b81546000191681526020019060010190808311610b22575b50505050509050919050565b606060008260ff16815481101515610b5a57fe5b90600052602060002090600b0201600601805480602002602001604051908101604052809291908181526020018280548015610bb957602002820191906000526020600020905b81546000191681526020019060010190808311610ba1575b50505050509050919050565b61016060405190810160405280600060ff16815260200160008019168152602001600080191681526020016000815260200160008152602001600060ff16815260200160608152602001606081526020016060815260200160608152602001606081525090565b828054828255906000526020600020908101928215610c6e579160200282015b82811115610c6d578251829060001916905591602001919060010190610c4c565b5b509050610c7b9190610c7f565b5090565b610ca191905b80821115610c9d576000816000905550600101610c85565b5090565b905600a165627a7a72305820ecb58a16187acd62158ef7c51b3324c5dddbfd7159b6831b864bddabdf0df7a80029",
  "source": "pragma solidity ^0.4.11;\n\ncontract Template{\n\n    struct template{\n\n        uint8 templateKey;\n        bytes32 templateName_kr;\n        bytes32 templateName_en;\n        uint x;\n        uint y;\n\n        uint8 tasteKey;\n        bytes32[] name_kr;\n        bytes32[] name_en;\n        bytes32[] image_name;\n        bytes32[] image_ipfs1;\n        bytes32[] image_ipfs2;\n\n    }\n\n    template[] public templateList;\n    uint8 templateKey;\n\n    constructor(){\n        addTemplate('여행','Travel',3,3);\n        addTemplate('음식','Food',3,3);\n        addTemplate('데이트','Dating',3,3);\n\n        addTaste(0, '나홀로여행', 'AloneTravel', 'alonetravel.png',                   'QmZ8x77VmjBMt5iZcfdsmCJ','U7WkHTkbeptgt3m9TDXSG4p');\n        addTaste(0, '디지털디톡스여행', 'DigitalDetoxTravel', 'digitaldetoxtravel.png', 'QmXnLteNK8JEcaZJ4M4XTud','5QWqH3EBFjPHK3QBrDoim1Y');\n        addTaste(0, '트레킹여행', 'TrekkingTravel', 'trekkingtravel.png',             'QmXpc5hcg4cwvkLnEhnD9ym','fjNtrVudKj7rd36WLQUcBGt');\n        addTaste(0, '홈스테이여행', 'HomestayTravel', 'homestaytravel.png',            'QmXEJrk7i4W1h31LzwxQHZe','pxNamyCq3MCifVm5Jb6QSH7');\n        addTaste(0, '힐링여행', 'HealingTravel', 'healingtravel.png',                 'Qmb4xzjsgmha6yhV66MVXqG','jyTs8mDzzTD3f9JN4QPbZbX');\n        addTaste(0, '수상스포츠여행', 'WaterSportsTravel', 'watersportstravel.png',     'QmZVoWR4ymFJzsQu1ij6vgn','YJ7PMqoevzh8eCs9odeKCAW');\n        addTaste(0, '자선여행', 'VolunteerTravel', 'volunteertravel.png',             'QmTvSZMpDeEx2hhUPC2Gqb5','HpUqZ1HWPSMb4g3b1dLbb8b');\n        addTaste(0, '음주여행', 'DrinkTravel', 'drinktravel.png',                     'QmY6N55k9Ub34Rgak46iKW1','2g1C1hzwWZ5YNtcL8x1kKSj');\n        addTaste(0, '애완동물과여행', 'TravelWithPets', 'travelwithpets.png',           'Qma7Pq6RXacAobjbuFwPrM7','vLyXXqxEKizRDd29dxU84go');\n\n        addTaste(1,'짜장면','Jajangmyeon','jajangmyeon.jpg',           'QmZuhD32MY1ZYRJzZ5HpUx9','MzCkThpGkSspJ3YEEDKiqNa');\n        addTaste(1,'초밥','Sushi','sushi.jpg',                        'QmRayC1eT8ZdGSpkqjNSAMQ','C3zed51vfTmGyYk7VKzBJZr');\n        addTaste(1,'삼겹살','PorkBelly','porkbelly.jpg',               'QmXowdFxfcGgBpQ38eNXsQt','JEqSxLP11dVEvrp1RUj3mUJ');\n        addTaste(1,'커리','Curry','curry.jpg',                        'QmagYZ9ZJXzgBu8oPX25Mvq','GNpqDEugfVfJT2aTjeqKxR1');\n        addTaste(1,'스테이크','Steak','steak.jpg',                     'QmSyvcu1FwNzgvVFRDwQX6c','EawJApjNCekkKVSTY1tTEx9');\n        addTaste(1,'냉면','ColdNoodles','coldnoodles.jpg',            'QmbDYM8wSr94KBnihwzCZUp','2KcHnacDxZy3jVL1w4sMgof');\n        addTaste(1,'치킨','Chicken','chicken.jpg',                    'QmV42Byrq9px1k8fMj1cMPg','87fvYBWS8r8jZR15N6t8ddV');\n        addTaste(1,'라면','Ramen','ramen.jpg',                        'QmavQJXQijSS25bQbtTsbTQ','oHSwozRykxPNViTXxvoEHKX');\n    addTaste(1,'떡볶이','Tteokbokki','tteokbokki.jpg',                 'QmZ5rgyVmGbaDrotUM1yUMv','gejUD5TiVzEh1NuGVxwLpvj');\n\n        addTaste(2,'놀이공원','AmusementPark','amusementpark.jpg',     'QmXgEDRpD23zbfevHLyxK3b','wXcdvwZmYZJUk7yvro2tttT');\n        addTaste(2,'카페','Cafe','cafe.jpg',                          'Qmd7X5QASJnQSsx8ydKEJZT','Q3UXSn8AE8UfGApjoaCdnuh');\n        addTaste(2,'도시산책','CityWalk','citywalk.jpg',               'QmPVRDCrHkv3HJojiK7vvZc','oQMkZZVce8RUFzFxQLwLyMs');\n        addTaste(2,'찜질방','KoreanSauna','koreansauna.jpg',           'Qme8JRgN3dvhAUHeDMkBcmc','qY8w4g7uSfriaP21M1zYUQk');\n        addTaste(2,'극장','Theater','theater.jpg',                    'QmeHTSDWxse3Nzc2F7nGpzf','Sg5bdkz4JGhqUUEQiRcmikd');\n        addTaste(2,'바다','Sea','sea.jpg',                            'QmRWTNLXm2AD9FJR8h7fSWV','uhXUGqdXCvJxGKDrEh4yRSF');\n        addTaste(2,'술','Alcohol','alcohol.jpg',                     'QmRZw2psnke7Y7oYBCzHfH4F','sDnEEkZSCeNGng5xmo9yG9');\n        addTaste(2,'노래방','Karaoke','karaoke.jpg',                  'QmWRwbj9CFp4THamVtZQHPwK','jQ12PEo6gB8PuTmdY1D1Ht');\n        addTaste(2,'운동','Exercise','exercise.jpg',                  'QmQGw4XTX33rUSYWFgKtME7','XWifQ94o71iBKMRkpGqJAfW');\n    }\n\n    //Template.deployed().then(function(instance){instance.addTemplate(\"음식\",\"Food\",3,3)});\n    function addTemplate(bytes32 _templateName_kr, bytes32 _templateName_en,uint _x, uint _y)\n    {\n        template memory addtemp;\n        addtemp.templateName_kr = _templateName_kr;\n        addtemp.templateName_en = _templateName_en;\n        addtemp.x = _x;\n        addtemp.y = _y;\n\n        templateList.push(addtemp);\n    }\n\n    //Template.deployed().then(function(instance){ return instance.getTemplate.call(0)}).then(function(v){return v[0].toString()}).then(function(value) {return web3.toAscii(value).replace(/\\u0000/g, '')});\n    //Template.deployed().then(function(instance){ return instance.getTemplate.call(0)}).then(function(v){return v[1].toString()}).then(function(value) {return web3.toAscii(value).replace(/\\u0000/g, '')});\n    //Template.deployed().then(function(instance){ return instance.getTemplate.call(0)}).then(function(v){return v[2]}).then(function(value) {return value.toNumber();});\n    //Template.deployed().then(function(instance){ return instance.getTemplate.call(0)}).then(function(v){return v[3]}).then(function(value) {return value.toNumber();});\n    function getTemplate(uint8 temlateKey)\n    public view returns(bytes32 templateName_kr, bytes32 templateName_en, uint x, uint y)\n    {\n        return(templateList[templateKey].templateName_kr, templateList[templateKey].templateName_en, templateList[templateKey].x, templateList[templateKey].y);\n    }\n\n\n    //Template.deployed().then(function(instance){instance.addTaste(0,\"치킨\",\"Chicken\", \"image.jpg\",\"IPFS:Chicken\")});\n    function addTaste(uint tid, bytes32 _name_kr, bytes32 _name_en, bytes32 _image_name, bytes32 _image_ipfs1, bytes32 _image_ipfs2){\n        templateList[tid].name_kr.push(_name_kr);\n        templateList[tid].name_en.push(_name_en);\n        templateList[tid].image_name.push(_image_name);\n        templateList[tid].image_ipfs1.push(_image_ipfs1);\n        templateList[tid].image_ipfs2.push(_image_ipfs2);\n    }\n\n    //Template.deployed().then(function(instance){ return instance.getTemplateTasteA.call(0)}).then(function(v){return v[0]});\n    function getTemplateTasteA(uint8 templateKey) public view returns(bytes32[] name_kr){\n        return(templateList[templateKey].name_kr);\n    }\n    //Template.deployed().then(function(instance){ return instance.getTemplateTasteB.call(0)}).then(function(v){return v[0]});\n    function getTemplateTasteB(uint8 templateKey) public view returns(bytes32[] name_en){\n        return(templateList[templateKey].name_en);\n    }\n    //Template.deployed().then(function(instance){ return instance.getTemplateTasteC.call(0)}).then(function(v){return v[0]});\n    function getTemplateTasteC(uint8 templateKey) public view returns(bytes32[] image_name){\n        return(templateList[templateKey].image_name);\n    }\n    //Template.deployed().then(function(instance){ return instance.getTemplateTasteD.call(0)}).then(function(v){return v[0]});\n    function getTemplateTasteD(uint8 templateKey) public view returns(bytes32[] image_ipfs1){\n        return(templateList[templateKey].image_ipfs1);\n    }\n    //Template.deployed().then(function(instance){ return instance.getTemplateTasteE.call(0)}).then(function(v){return v[0]});\n    function getTemplateTasteE(uint8 templateKey) public view returns(bytes32[] image_ipfs2){\n        return(templateList[templateKey].image_ipfs2);\n    }\n\n\n}",
  "sourcePath": "/Users/hongmartin/Documents/Github/vue-truffle/contracts/Template.sol",
  "compiler": {
    "name": "solc",
    "version": "0.4.24+commit.e67f0147.Emscripten.clang"
  },
  "schemaVersion": "2.0.1",
  "updatedAt": "2018-07-15T02:14:01.994Z"
}